:1000000070200020C5190000C1190000C1190000AE
:1000100000000000000000000000000000000000E0
:10002000000000000000000000000000C1190000F6
:100030000000000000000000C1190000C11900000C
:10004000C1190000C1190000C1190000C119000048
:10005000C1190000C1190000C1190000C119000038
:10006000C1190000C1190000C1190000C119000028
:10007000C1190000C1190000C1190000C119000018
:10008000C1190000C1190000C1190000C119000008
:10009000C1190000C1190000C1190000C1190000F8
:1000A000C119000010B5064C2378002B07D1054B71
:1000B000002B02D0044800E000BF0123237010BDD4
:1000C0001800002000000000D81D000008B5084BF3
:1000D000002B03D00748084900E000BF0748036829
:1000E000002B00D108BD064B002BFBD09847F9E749
:1000F00000000000D81D00001C000020D81D0000DA
:100100000000000010B54908402481420CD30023B0
:10011000091A01339BB28842FAD9013B9BB24024B1
:10012000FF2B01D813800024201C10BD10B582B015
:10013000041C0E4B1B78002B01D000290DD001A907
:100140000C700C200A4B98470C200A4B9847074B21
:100150005C7001221A70002006E0044B5B78834239
:1001600001D01D2000E0002002B010BD34000020AE
:1001700069180000DD170000444B984233D006D8C0
:10018000434B98420DD0434B98421BD06FE0424BFB
:1001900098424AD0414B984258D0414B984266D140
:1001A00032E0012906D0002963D0022906D00329B4
:1001B00006D001E03B4867E0002065E03A4863E094
:1001C0003A4861E0012906D0002954D0022906D01E
:1001D000032906D001E0364856E0002054E03548B7
:1001E00052E0354850E0012906D0002945D00229C7
:1001F00006D0032906D001E0304845E0002043E066
:100200002F4841E02F483FE0012906D0002936D091
:10021000022906D0032906D001E02B4834E0002053
:1002200032E02A4830E02A482EE0012906D0002991
:1002300027D0022906D0032906D001E0254823E073
:10024000002021E024481FE024481DE0012906D0B9
:10025000002918D0022906D0032906D001E0204841
:1002600012E0002010E01F480EE01F480CE00020C4
:100270000AE01E4808E0032006E01D4804E01D488F
:1002800002E01D4800E01D487047C04600100042D3
:1002900000080042000C004200180042001C00420E
:1002A00000140042030005000300060003000700DD
:1002B0000300010003001E0003001F0003000900EB
:1002C00003000A0003000B000300110003001200EA
:1002D0000300130003000D0003000E0003000F00D5
:1002E00003001700030018000300190003000400B6
:1002F000030008000300100003000C0003001600B8
:1003000030B587B00C4B6A4632CB32C232CB32C2E8
:10031000009B834206D001239A00694652588242CC
:1003200003D100E00023D8B203E00133062BF3D160
:10033000002007B030BDC046581D0000F0B585B0A4
:1003400001900E1C029203930A4D0B4C281C211C99
:1003500001220A4FB8470198311C029A039B084EAC
:10036000B047061C281C211C0022B847301C05B0D1
:10037000F0BDC0465800002060000020D50A0000F3
:10038000CD0D000010B58EB0244C11232370002336
:100390006370A370012269464A708B700A70112045
:1003A0001F4B98472378D9090022002904D15A0904
:1003B000D2011C498C4662441F210B401E39081C87
:1003C0009840906101AA11700023536093601374E8
:1003D000537491741F31535407930893124B536114
:1003E00080235B02D360114B536201235B42936213
:1003F0000F4BD3620F4B13630F4C201C0F49104B54
:1004000098472268138ADB0BDB039BB2002BF9D1E0
:10041000116802330B4313600EB010BD6000002062
:100420001D11000000440041A086010002001000E0
:10043000020012000200130058000020000C0042CD
:10044000E107000070B59AB00D1C141C0DA90870CE
:10045000531C0A486A460A4EB0476B461878002C6F
:100460000AD0611EC9B2013100231A1C6A445278B5
:10047000EA5401338B42F8D11AB070BD5800002005
:100480003D03000070B59AB0161C20300DAA107004
:10049000002B1DD05C1EE4B2013400220DA8801890
:1004A0008D5C45700132A242F8D107E01A1C6A4403
:1004B0005278F25401339C42F8D111E001330948DB
:1004C0000DA96A46084DA8476B4618780023EDE74A
:1004D00004480DA96A460123034CA0476B461878CF
:1004E0001AB070BD580000203D030000F0B557461B
:1004F00080B486B000240F2302ADAC4663441C7068
:100500000B78002B1DD001920D1C00900F4B9A46CA
:100510000F4F104E0098291C03AA019BD04764205E
:100520003B6898470F2402AB9C4664440098211C0A
:10053000019AB04764203B6898472A7823789A420A
:10054000E8D1002006B004BC9246F0BD850400004E
:10055000540000204504000010B582B001AC002317
:10056000237063700720211C0122024B98472078DA
:1005700002B010BD4504000010B582B001AC0023EC
:1005800023706370064B98470F2398432070072011
:10059000211C6A460E3B034CA04702B010BDC0466A
:1005A000590500008504000030B583B001AC00237C
:1005B00023706370E12269460A704B700348221C65
:1005C0000133034DA847207803B030BD5800002008
:1005D0003D03000030B583B001AC0023237063708D
:1005E000E22269460A704B700348221C0133034D16
:1005F000A847207803B030BD580000203D0300001C
:1006000010B584B0802252030F4B5A610F4B1B6808
:100610006420984701AC002323706370A370E370DB
:1006200023716371A371E37123726372084B98475E
:10063000084B98470E2323700020211C0122064BF3
:10064000984704B010BDC04600440041540000204B
:10065000A9050000D5050000ED040000F0B55F46D7
:1006600056464D464446F0B487B080225203344B80
:100670005A61344B1B686420984703AC00256570B1
:10068000A570E57025716571A571E57125726572BA
:10069000262323700620211C01222B4EB047052360
:1006A00023701120211C0122B04725700520211C38
:1006B0000122B04711239B46237022239A46637080
:1006C00033239946A37044239846E3705527277136
:1006D0000A20211C6A4605231C4DA8475B4623704F
:1006E000534663704B46A3704346E3702771102056
:1006F000211C6A460523A847012525700220211CDC
:100700000122B047124B984725700120211C01227D
:10071000B0472F2323700420211C0122B0470D4B2A
:1007200098470D4B98470F2323700020211C01226E
:10073000B04707B03CBC90469946A246AB46F0BDD8
:100740000044004154000020ED0400008504000036
:1007500079050000A9050000D505000070B5A0B01E
:10076000051C0E1C03A90E230B7000206A460D3BCE
:10077000144CA047144B9847144B9847A02213AB36
:100780001A70002E0AD0741EE4B20134002213AB9A
:100790009918A85C48700132A242F8D106AC731CCB
:1007A0000B4813A9221C0B4DA84726780A4C80251C
:1007B0006D03A561094B1B68012098476561301CDA
:1007C00020B070BD85040000A9050000D50500001B
:1007D000580000203D030000004400415400002068
:1007E000F0B55F4656464D464446F0B489B0804663
:1007F0000D1C141C031C19600B689B0700D49CE0A3
:10080000536A0393936A0493D36A0593136B069315
:1008100000271F239946F9B2BB0003AA9858002865
:1008200002D1281CA04B9847431C28D001040B0C74
:100830009B46000CC6B20023020604D47309DB01F8
:100840009A4A944663444A463240981840300078A9
:10085000824680205146C9070AD552089B1830337A
:100860001878C0B2F30701D5000901E00F23184042
:10087000834504D00023424613601C200CE101375D
:10088000042FC8D10C208A4B9847011C22780027DE
:10089000012A11D1606902AA864B9847031C1720D0
:1008A000002B00D0F8E0AB7ADBB202AA1278053058
:1008B0009A4200D0F0E00C372678002E15D16369FB
:1008C0009C46228B2B68E17E0904A07E01431C20FC
:1008D000994200D0E0E0237F002B01D040231A434F
:1008E0000823614619430F4300E00022A3686168B2
:1008F0000B43E1680B433B43217C0A43617C0029A5
:1009000001D080210B43A17C002902D080218902E3
:100910000A43286802210B43834209D16B68934242
:1009200006D143465E71237C424693710020B3E0BA
:100930000023424613601C20AEE00B680520DB0755
:1009400000D5A9E0081C5C4B98475C490A6A861CE4
:100950000123B34013430B6207A92027E35D0B700B
:100960000D30C6B2301C564B9847301C554B98473B
:10097000E05D0021544B98472378012B03D12A686E
:100980000B3313432B602378002B03D12A680833E1
:1009900013432B6043461E6802AB80221A7000226C
:1009A0005A7001219970DA702378002B01D102ABC3
:1009B0009A70636A0393A36A0493E36A0593236BB3
:1009C0000693002702ADF9B2BB0003AA985800288D
:1009D00002D1301C344B9847431C05D02870000CC2
:1009E000C0B2291C394B98470137042FEBD123782B
:1009F00042465371237C9371A37CD37100226B46D2
:100A0000DA802378012B15D1434618682A4B984782
:100A10000D30C0B2264B9847011C60696B469A1D89
:100A2000244B9847031C1720002B35D16B46063307
:100A30001B78B3722378002B0ED16169228B706909
:100A4000E37E1B04A57E2B4303437361237F002BAE
:100A500004D040231A4301E000220021A36860680B
:100A60000343E06803430B43217C0A43617C002974
:100A700003D117498978890701D580210B43A17CCF
:100A8000002902D0802189020A4331680B43336078
:100A900073681A437260002009B03CBC90469946C6
:100AA000A246AB46F0BDC0467901000000440041BB
:100AB000851800000501000001030000000400404B
:100AC00069180000DD1700002D0100006119000009
:100AD0000020004110B544791523012C6CD1002A67
:100AE0005AD04B78002B46D003689B7BDB0710D491
:100AF0000B78D9090022002904D15A09D2012F49C3
:100B00008C4662441F210B401E3999409161052398
:100B100052E00B78DC090022002C04D15A09D201E2
:100B2000264CA44662441F2423401E3C9C40546132
:100B30008A780368997BC90700D51A83C279002394
:100B4000002A39D102680421937B0B42FCD0917BAF
:100B50000023490730D5138A5B0703D5118A042384
:100B60000B4313828379012B02D1138B002323E0E3
:100B7000138B002320E00B78D9090022002904D12F
:100B80005A09D2010D498C4662441F210B401E397F
:100B90009940516100230FE00B78D9090022002908
:100BA00004D15A09D20105498C4662441F210B40E9
:100BB0001E39994091610023181C10BD004400416A
:100BC000F0B55F4656464D464446F0B483B0172311
:100BD000002A00D1ECE04379002B05D103689C7B0F
:100BE000A40701D502249C73934600240123022507
:100BF000AC460235A9468EE04579002D17D107682D
:100C0000BD7B1D4206D16E4DBE7B1E4202D1013D11
:100C1000002DF9D10668B57B67463D4203D002231B
:100C2000B3730233C4E0B57B1D4200D1B7E0066860
:100C3000B57B1D42FCD0651CADB2A8460D5D877921
:100C4000012F02D0ADB2444605E00234A4B24746BB
:100C5000CF5D3F023D43B77B1F4202D0ED05ED0D56
:100C60003583551EADB2C679002E57D04579002D7B
:100C700037D1544F01910568AE7B1E421CD0661CD3
:100C8000B1B288460199095D00918179012903D0AB
:100C900069460E88444607E00234A4B24146019EEC
:100CA000715C0902009E0E43A97B194202D0F60531
:100CB000F60D2E83013A92B20668B57B49460D4285
:100CC00002D1013F002FD6D10199B57B67463D4245
:100CD00003D00223B37302336AE0B57B4E4635423C
:100CE0005FD00668B57B4F463D42FBD0B57B3D42A9
:100CF0000DD0358A3D4204D0358A04273D43ADB23C
:100D000035828579012D01D1358B00E0358B5D462B
:100D1000013DADB2AB46013A92B200E02A1C2A4D29
:100D2000AA4200D068E75A464379012B06D10168F0
:100D300002228B7B1342FCD0002339E0002B32D1FE
:100D4000C179002934D0002A1FD131E0A27B0A42A8
:100D500002D1013B002BF9D103689A7B0A4224D0CF
:100D60009A7B0A420CD01A8A0A4203D01A8A32436A
:100D700092B21A828279012A01D11B8B00E01B8B6F
:100D8000013FBFB2002F04D111E004210C4D042615
:100D90005F460468A37B0B42DED12B1CD6E71223EF
:100DA00006E0122304E0002302E0122300E0002307
:100DB000181C03B03CBC90469946A246AB46F0BD19
:100DC0001027000011270000FFFF0000F0B55F466C
:100DD00056464D464446F0B485B0894603929A463D
:100DE0001726002B00D138E1C3790536002B00D13E
:100DF00033E14379002B05D103689A7B920701D533
:100E000002229A7353465F1EBFB200239B46012203
:100E100004214479002C17D10668B47B144206D112
:100E2000924CB57B154202D1013C002CF9D10468EB
:100E3000A57B0226354203D00223A37302360CE1C0
:100E4000A47B144200D1F8E00568AC7B1442FCD0CE
:100E50005E1CB6B24C46E45CA0468479012C05D0F9
:100E600043466C46A380A488331C06E002339BB241
:100E70004C46A65D360244463443AE7B164200D152
:100E8000E5E0E405E40D2C83E1E0794D0197046889
:100E9000A67B16421ED05E1CB6B2B4464E46F65C29
:100EA00002968779012F02D0B6B2634608E002337A
:100EB0009BB24F466646BE5D3602029F37433E1CDC
:100EC000A77B174202D0F605F60D2683019F013F4E
:100ED000BCB201940468A67B0E4202D1013D002DF4
:100EE000D5D1019FA57B0226354203D00223A373EF
:100EF0000236B2E0A47B0C4200D1A0E03E1C0568A3
:100F0000AC7B0C42FCD05446013CA4B2A246AC7B64
:100F10000C4217D02F8A00240F4205D02C8A0427B8
:100F20003C43A4B22C821E248779012F03D12D8B40
:100F3000ED05ED0D02E02F8BFF253D40002C03D089
:100F4000261C8AE0102688E05C460134A4B2A44640
:100F5000039F5C463D558779012F08D15F460237D4
:100F6000BCB2A3462D0A039C6746E55500E0E34664
:100F7000771EBFB2002E00D04BE752464379012BBB
:100F800006D1016802228B7B1342FCD0002664E06C
:100F9000002B56D10026002A5FD03EE0B57B3D42B3
:100FA00002D1013B002BF9D163461B689D7B3D427A
:100FB00049D0013880B29D7B3D4216D01D8A002663
:100FC0003D4205D01D8A49460D43ADB21D821E36F5
:100FD00061468D79012D03D11D8BED05ED0D01E0ED
:100FE0001D8B2540002E02D037E0102635E05B46F1
:100FF00001339BB246465946755461468E79012E9F
:1010000007D15E460236B1B28B462D0A4146CD5419
:1010100000E09B46002809D117E00427134A042367
:101020009946FF248446039B9846504663461E68B3
:10103000B37B3B42B8D1131CB0E712260DE0122659
:101040000BE0002609E0122607E0002605E04479BF
:101050003E1C002C00D052E717E7301C05B03CBC0A
:1010600090469946A246AB46F0BDC0461027000008
:10107000112700000C4B1B68002B10D1EFF31083DD
:10108000002B09D172B6BFF35F8F0022074B1A7095
:101090000132074B1A7002E00022054B1A70024A17
:1010A00013680133136070473800002000000020EF
:1010B0003C000020084B1A68013A1A601B68002B9C
:1010C00009D1064B1B78002B05D00122044B1A7066
:1010D000BFF35F8F62B67047380000203C000020ED
:1010E00000000020F0B583B001AC01256570002739
:1010F000A77025700E20211C064EB0478022D20119
:10110000054B9A61277065700F20211CB04703B012
:10111000F0BDC0461D1100000044004100B583B081
:1011200001AB80221A700A785A704A789A708A78CD
:10113000DA70191C014B984703B000BD611900001B
:101140000368987AC009704770B5041C0668054D9D
:10115000201CA8470028FBD1328802231343338088
:1011600070BDC0464111000070B5041C0668054DF5
:10117000201CA8470028FBD13388022293433380E8
:1011800070BDC0464111000070B5041C0668064BD6
:101190009847064D201CA8470028FBD13288012320
:1011A0001343338070BDC046691100004111000037
:1011B000F0B583B0041C0191151C0668114F201C6A
:1011C000B8470028FBD12379002B0AD0012B16D178
:1011D0001730012D14D80635AD00019BAB5100200E
:1011E0000EE01720022D0BD8074B019A9A4207D820
:1011F0006B469B880C356D00AB53002000E01A2035
:1012000003B0F0BD41110000FFFF0000F0B583B056
:10121000041C161C01602F4A916920230B43936123
:1012200001A902230B7002202B4B984702202B4B65
:101230009847201C2A4B9847B37823713379637100
:10124000284B1C60276833883B80B378002B17D06D
:101250001720012B3CD13B889BB23B80F378002BBD
:1012600034D03A88802313433B802FE0201CA847CA
:101270000028FBD1201CB16800221B4B98471BE0C3
:101280003A88042313433B80F3781720002B1FD1A7
:10129000164D201CA8470028FBD1201CB168002255
:1012A000114B9847114D201CA8470028FBD1201C4A
:1012B000F16801220C4B984733790020002B07D0AE
:1012C0007A888023DB0113437B8001E0074DCDE763
:1012D00003B0F0BD0004004069180000DD170000F5
:1012E0008911000064000020B111000041110000CC
:1012F000F8B5041C0E1C076803791520002B05D1D6
:10130000034D201CA8470028FBD1BE82F8BDC04673
:101310004111000002680379002B06D00020012B48
:101320000CD10020012909D802E00020022905D8AB
:10133000137ADBB20B4101201840FFE77047C0462B
:1013400002680379002B06D01A20012B0ED117203A
:1013500001290BD802E01720022907D801238B406E
:10136000191C0323194011720020FFE77047C04683
:1013700008B5072803D88000174B1B589F4600204C
:1013800028E0164BD86825E0154B186A8005800FB9
:10139000144BC340181C1DE0104B18691AE00F4B8A
:1013A0001B680220184015D00D491022CB681A4244
:1013B000FCD00A4B1B685B070BD500200A4B9847F3
:1013C000064B9B681B041B0C584303E08020000263
:1013D00000E0064808BDC046701D00004000002027
:1013E0000008004000127A0085180000006CDC0242
:1013F00070B50C4C236A0178857842780120024050
:1014000092014026B3431343021C2A40D2017F308D
:101410008343134303220A40120203490B40134340
:10142000236270BD00080040FFFCFFFFF0B5574687
:101430004E464546E0B41C4EB3699C46417805785B
:101440000779C378994644798378012003409B004B
:101450009A4604229046624643469A43131C5246DB
:101460001A43131C0140C900082293430B434A4608
:101470000240920140218B4313430740FF01802229
:1014800093433B43793A15402D02084F3B402B4391
:1014900004402003064C1C400443B4611CBC90462D
:1014A0009946A246F0BDC04600080040FFF8FFFF85
:1014B000FFEFFFFF072803D880001E4B1B589F46F5
:1014C000172036E01C4A116A02230B4313620020E6
:1014D0002FE0194A916902230B439361002028E011
:1014E000154A118A02230B431382002021E0124A7D
:1014F000918A02230B43938200201AE00F4B196854
:1015000002220A431A601A680D4B13400A4A938458
:10151000111C1022CB681A42FCD0084A9168064B75
:10152000D96251689962126892B29A84002000E0F0
:1015300000207047901D000000080040400000207F
:101540007FFF0000F0B587B0C222D2002C4B9A601A
:101550002C4A53681E218B43536001236A46137043
:101560000024294DE0B26946A84701341C2CF9D16A
:10157000264B1B68DB0422495B0E1A048869244B46
:10158000034013438B6104A8012545708570002436
:10159000C47005710723037044711E4B98470420E3
:1015A0001D4EB04703A84470857004701B4B9847CC
:1015B0000620B0471A4B98476B465C701C725C72F1
:1015C00004236A4613701C33019302206946154FA9
:1015D000B8470220144EB047144B1C725C729C72C8
:1015E000DC7201956B465C7006236A4613701472B8
:1015F000547200206946B8470020B04707B0F0BDDC
:10160000000800400040004169180000246080008C
:10161000FFFF80FF2D140000B5140000F11300003F
:1016200031160000551600000D17000000040040A0
:10163000064A916908230B4393610122044B1A70F7
:10164000191C0B781342FCD17047C04600040040BF
:10165000000C004070B5061C041C0D782D020543DB
:101660004B78002B02D08023DB021D434B7A002BEA
:1016700002D080231B031D434868012818D9431E4C
:10168000184210D1022806D90223002201325B0041
:101690009842FBD800E0002212023243141C80233F
:1016A0005B031D4304E00402344380239B021D437B
:1016B0000B7A002B02D080239B031D430F4A5378E3
:1016C0005BB2002BFBDB0E4B98470E4B1E700B4A98
:1016D00053785BB2002BFBDB084B9C601A1C5378E1
:1016E0005BB2002BFBDB054A516880235B020B4099
:1016F0001D435560044B984770BDC046000C004028
:1017000075100000080C0040B510000010B5041C56
:101710000B4A53785BB2002BFBDB0A4B98470A4B12
:101720001C70074A53785BB2002BFBDB044A5368FA
:10173000802149020B435360044B984710BDC046BB
:10174000000C004075100000040C0040B5100000B3
:1017500070B5041C1A4A53785BB2002BFBDB194BA3
:101760009847194B1C70164A53785BB2002BFBDB71
:10177000134E7068C004C00E144B9847051C124BE2
:101780001C707668F602F60F114B1C700C4A5378E9
:101790005BB2002BFBDB0A4B9C68240AA4B20D4B06
:1017A0009847002E07D1012C07D9281C211C0A4B71
:1017B0009847051C01E00134E540281C70BDC04677
:1017C000000C004075100000040C00407113000074
:1017D000080C0040B5100000D51B000010B5041C1B
:1017E000064B9847064B1C70064A51888023DB0144
:1017F0000B435380044B984710BDC0467510000042
:10180000020C0040000C0040B510000010B5041C94
:101810000F4B98470F4B1C700F4B5A881205100F37
:1018200059880E4A0A405A8059880D4A0A405A80FF
:10183000191C8022D2014B881342FCD106490202B6
:101840004888064B034013434B80064B984710BD16
:1018500075100000020C0040000C0040FFF0FFFF7C
:10186000FFBFFFFFB510000010B50C782402044341
:10187000024B9847A4B2024B5C8010BD0D180000CB
:10188000000C004010B5041C064B9847064B1C701A
:10189000064B5C882405240F054B9847201C054BFC
:1018A000984710BD75100000020C0040000C00406D
:1018B000B51000005117000030B5D378002B1ED1B1
:1018C0001478802C04D0240680235B021C4300E0A3
:1018D000002453780225AB430AD19378002B03D11F
:1018E00080239B021C4302E0C023DB021C434160B7
:1018F0005378013B012B12D8184B1C400FE041607C
:101900000B041B0CA024E405234383620B0CD0249E
:10191000240623438362D378002B18D01CE00B04E9
:101920001B0CA025ED052B43234383620B0CD02514
:101930002D062B4323438362D378002B0CD1630302
:1019400005D59378012B01D1816100E04161537885
:10195000013B012B00D8816030BDC046FFFFFBFF7B
:1019600008B5031C0A1CC1090020002904D158092C
:10197000C00105498C4660441F210B401E39994027
:10198000024B984708BDC04600440041B91800000A
:101990007047C04608B5054B9847054B9847054B1F
:1019A0009847054B9847054B984708BD45150000DB
:1019B000E510000091190000911900009119000034
:1019C000FEE7C04610B51D4B1D4A9A4203D01D4B81
:1019D0001A4A9A4204D31C4B1C4A9A4210D31EE066
:1019E0001B4A184B03339B1A9B0801339B000022B0
:1019F000124813498C58845004329A42FAD1EAE7CB
:101A0000144A114B03339B1A9B0801339B0000229D
:101A10000E4800211418216004329A42FAD10E4A6D
:101A2000FF210E4B8B4393600D4A516880230B437B
:101A300053600C4B98470C4B9847FEE70000002082
:101A4000D81D0000180000207000002018000020A1
:101A5000040000201C00002000ED00E00000000059
:101A600000400041F91C0000FD1A000010B584B0D0
:101A700000236A46D370039313809370012313717C
:101A80000293054C201C0549054B9847201C054B2B
:101A9000984704B010BDC046680000200014004004
:101AA0000D1200004911000008B505480021054B42
:101AB0009847002803D002480021034B984708BDEF
:101AC00068000020151300004113000038B5A7245A
:101AD000024DA847013C002CFBD138BDA91A0000DB
:101AE00070B5002806D0051C0024034EB047013411
:101AF000AC42FBD170BDC046CD1A0000F0B583B03A
:101B0000214B9847214B984721480121214B984769
:101B1000214B9847214E224B1E60224C8025ED011F
:101B2000E5616420B047E5611F4B9847E56164209B
:101B3000B047E56168461D4905221D4B9847802343
:101B40005B03A3611B4B9847144F1B4E1B4DFA20A0
:101B50004000B847134C8023DB01E3616846052150
:101B6000B047A847236A1B04F1D415481549012240
:101B7000154CA047124815491422154B9847104898
:101B800010490022A047E2E7951900006D1A0000F5
:101B900068000020F112000085030000E11A000037
:101BA00054000020004400415D060000B01D00000C
:101BB000451D0000010600005D07000079050000DA
:101BC0005800002060000020D50A0000040000201A
:101BD000C10B0000002243088B4274D303098B42DF
:101BE0005FD3030A8B4244D3030B8B4228D3030CED
:101BF0008B420DD3FF22090212BA030C8B4202D38F
:101C00001212090265D0030B8B4219D300E0090AB6
:101C1000C30B8B4201D3CB03C01A5241830B8B42BF
:101C200001D38B03C01A5241430B8B4201D34B03A8
:101C3000C01A5241030B8B4201D30B03C01A52410D
:101C4000C30A8B4201D3CB02C01A5241830A8B4292
:101C500001D38B02C01A5241430A8B4201D34B027B
:101C6000C01A5241030A8B4201D30B02C01A5241DF
:101C7000CDD2C3098B4201D3CB01C01A5241830993
:101C80008B4201D38B01C01A524143098B4201D3CD
:101C90004B01C01A524103098B4201D30B01C01AF8
:101CA0005241C3088B4201D3CB00C01A5241830872
:101CB0008B4201D38B00C01A524143088B4201D39F
:101CC0004B00C01A5241411A00D2014652411046FF
:101CD0007047FFE701B5002000F00CF802BDC046D8
:101CE0000029F7D003B5FFF775FF0EBC4243891AF0
:101CF0001847C0467047C0460E4B70B500251E1CE5
:101D00000D4CE41AA410A54204D0AB00F358984738
:101D10000135F8E700F050F8084B00251E1C084C70
:101D2000E41AA410A54204D0AB00F358984701353B
:101D3000F8E770BDC41D0000C41D0000C41D0000F4
:101D4000C81D0000002310B5934203D0CC5CC454DE
:101D50000133F9E710BD000000080042000C00420A
:101D6000001000420014004200180042001C004213
:101D7000821300007E1300007E130000CC130000CD
:101D8000CC13000098130000881300009E1300007D
:101D9000E0140000C0140000C01400003015000062
:101DA000D2140000EE140000C4140000FC14000063
:101DB0004A55535449000000F8B5C046F8BC08BC69
:101DC0009E467047CD000000F8B5C046F8BC08BC80
:081DD0009E467047A5000000CB
:101DD80001000000000102030405060708090A0BB8
:081DE8000C0D0E0F1011121377
:04000003000019C51B
:00000001FF
